{
    "abi": [
        {
            "type": "constructor",
            "inputs": [
                {
                    "name": "_stakingToken",
                    "type": "address",
                    "internalType": "address"
                },
                {
                    "name": "_rewardToken",
                    "type": "address",
                    "internalType": "address"
                }
            ],
            "stateMutability": "nonpayable"
        },
        {
            "type": "function",
            "name": "Reward_Rate",
            "inputs": [],
            "outputs": [
                {
                    "name": "",
                    "type": "uint256",
                    "internalType": "uint256"
                }
            ],
            "stateMutability": "view"
        },
        {
            "type": "function",
            "name": "claimReward",
            "inputs": [],
            "outputs": [],
            "stateMutability": "nonpayable"
        },
        {
            "type": "function",
            "name": "lastUpdatedTime",
            "inputs": [],
            "outputs": [
                {
                    "name": "",
                    "type": "uint256",
                    "internalType": "uint256"
                }
            ],
            "stateMutability": "view"
        },
        {
            "type": "function",
            "name": "rewardPerToken",
            "inputs": [],
            "outputs": [
                {
                    "name": "",
                    "type": "uint256",
                    "internalType": "uint256"
                }
            ],
            "stateMutability": "view"
        },
        {
            "type": "function",
            "name": "rewardPerTokenStored",
            "inputs": [],
            "outputs": [
                {
                    "name": "",
                    "type": "uint256",
                    "internalType": "uint256"
                }
            ],
            "stateMutability": "view"
        },
        {
            "type": "function",
            "name": "rewardToken",
            "inputs": [],
            "outputs": [
                {
                    "name": "",
                    "type": "address",
                    "internalType": "contract IERC20"
                }
            ],
            "stateMutability": "view"
        },
        {
            "type": "function",
            "name": "rewards",
            "inputs": [
                {
                    "name": "",
                    "type": "address",
                    "internalType": "address"
                }
            ],
            "outputs": [
                {
                    "name": "",
                    "type": "uint256",
                    "internalType": "uint256"
                }
            ],
            "stateMutability": "view"
        },
        {
            "type": "function",
            "name": "stake",
            "inputs": [
                {
                    "name": "amount",
                    "type": "uint256",
                    "internalType": "uint256"
                }
            ],
            "outputs": [],
            "stateMutability": "nonpayable"
        },
        {
            "type": "function",
            "name": "stakedBalance",
            "inputs": [
                {
                    "name": "",
                    "type": "address",
                    "internalType": "address"
                }
            ],
            "outputs": [
                {
                    "name": "",
                    "type": "uint256",
                    "internalType": "uint256"
                }
            ],
            "stateMutability": "view"
        },
        {
            "type": "function",
            "name": "stakingToken",
            "inputs": [],
            "outputs": [
                {
                    "name": "",
                    "type": "address",
                    "internalType": "contract IERC20"
                }
            ],
            "stateMutability": "view"
        },
        {
            "type": "function",
            "name": "tokenEarned",
            "inputs": [
                {
                    "name": "_account",
                    "type": "address",
                    "internalType": "address"
                }
            ],
            "outputs": [
                {
                    "name": "",
                    "type": "uint256",
                    "internalType": "uint256"
                }
            ],
            "stateMutability": "view"
        },
        {
            "type": "function",
            "name": "userRewardPerTokenPaid",
            "inputs": [
                {
                    "name": "",
                    "type": "address",
                    "internalType": "address"
                }
            ],
            "outputs": [
                {
                    "name": "",
                    "type": "uint256",
                    "internalType": "uint256"
                }
            ],
            "stateMutability": "view"
        },
        {
            "type": "function",
            "name": "withdrawnToken",
            "inputs": [
                {
                    "name": "amount",
                    "type": "uint256",
                    "internalType": "uint256"
                }
            ],
            "outputs": [],
            "stateMutability": "nonpayable"
        },
        {
            "type": "event",
            "name": "RewardsClaimed",
            "inputs": [
                {
                    "name": "user",
                    "type": "address",
                    "indexed": true,
                    "internalType": "address"
                },
                {
                    "name": "amount",
                    "type": "uint256",
                    "indexed": true,
                    "internalType": "uint256"
                }
            ],
            "anonymous": false
        },
        {
            "type": "event",
            "name": "Staked",
            "inputs": [
                {
                    "name": "user",
                    "type": "address",
                    "indexed": true,
                    "internalType": "address"
                },
                {
                    "name": "amount",
                    "type": "uint256",
                    "indexed": true,
                    "internalType": "uint256"
                }
            ],
            "anonymous": false
        },
        {
            "type": "event",
            "name": "Withdrawn",
            "inputs": [
                {
                    "name": "user",
                    "type": "address",
                    "indexed": true,
                    "internalType": "address"
                },
                {
                    "name": "amount",
                    "type": "uint256",
                    "indexed": true,
                    "internalType": "uint256"
                }
            ],
            "anonymous": false
        },
        {
            "type": "error",
            "name": "ReentrancyGuardReentrantCall",
            "inputs": []
        }
    ],
    "bytecode": {
        "object": "0x6080604052348015600f57600080fd5b5060405161093b38038061093b833981016040819052602c91607c565b6001600081905580546001600160a01b039384166001600160a01b0319918216179091556002805492909316911617905560aa565b80516001600160a01b0381168114607757600080fd5b919050565b60008060408385031215608e57600080fd5b6095836061565b915060a1602084016061565b90509250929050565b610882806100b96000396000f3fe608060405234801561001057600080fd5b50600436106100cf5760003560e01c80638b8763471161008c578063bf85689511610066578063bf856895146101c4578063cd3daf9d146101cd578063df136d65146101d5578063f7c618c1146101de57600080fd5b80638b87634714610189578063a694fc3a146101a9578063b88a802f146101bc57600080fd5b80630700037d146100d45780635780fe9814610107578063602172671461011a57806369ef6ee71461013a57806372f702f314610149578063746b116114610174575b600080fd5b6100f46100e236600461076c565b60076020526000908152604090205481565b6040519081526020015b60405180910390f35b6100f461011536600461076c565b6101f1565b6100f461012836600461076c565b60066020526000908152604090205481565b6100f4670de0b6b3a764000081565b60015461015c906001600160a01b031681565b6040516001600160a01b0390911681526020016100fe565b61018761018236600461079c565b610245565b005b6100f461019736600461076c565b60086020526000908152604090205481565b6101876101b736600461079c565b610412565b610187610551565b6100f460055481565b6100f46106e5565b6100f460045481565b60025461015c906001600160a01b031681565b6001600160a01b0381166000908152600860205260408120546102126106e5565b61021c91906107cb565b6001600160a01b03831660009081526006602052604090205461023f91906107de565b92915050565b61024d610742565b336102566106e5565b60045542600555610266816101f1565b6001600160a01b038216600090815260076020908152604080832093909355600454600890915291902055816102e35760405162461bcd60e51b815260206004820152601d60248201527f416d6f756e74206d7573742062652067726561746572207468616e203000000060448201526064015b60405180910390fd5b81600360008282546102f591906107cb565b909155505033600090815260066020526040812080548492906103199084906107cb565b9091555050604051829033907f7084f5476618d8e60b11ef0d7d3f06914655adb8793e28ff7f018d4c76d505d590600090a360015460405163a9059cbb60e01b8152336004820152602481018490526000916001600160a01b03169063a9059cbb906044015b6020604051808303816000875af115801561039e573d6000803e3d6000fd5b505050506040513d601f19601f820116820180604052508101906103c291906107f5565b9050806104035760405162461bcd60e51b815260206004820152600f60248201526e151c985b9cd9995c8819985a5b1959608a1b60448201526064016102da565b505061040f6001600055565b50565b61041a610742565b336104236106e5565b60045542600555610433816101f1565b6001600160a01b038216600090815260076020908152604080832093909355600454600890915291902055816104ab5760405162461bcd60e51b815260206004820152601d60248201527f416d6f756e74206d7573742062652067726561746572207468616e203000000060448201526064016102da565b81600360008282546104bd9190610817565b909155505033600090815260066020526040812080548492906104e1908490610817565b9091555050604051829033907f9e71bc8eea02a63969f509818f2dafb9254532904319f9dbda79b67bd34a5f3d90600090a36001546040516323b872dd60e01b8152336004820152306024820152604481018490526000916001600160a01b0316906323b872dd9060640161037f565b610559610742565b336105626106e5565b60045542600555610572816101f1565b6001600160a01b0382166000908152600760208181526040808420949094556004546008825284842055338352522054806105e55760405162461bcd60e51b81526020600482015260136024820152724e6f207265776172647320746f20636c61696d60681b60448201526064016102da565b33600081815260076020526040808220829055518392917ffc30cddea38e2bf4d6ea7d3f9ed3b6ad7f176419f4963bd81318067a4aee73fe91a360025460405163a9059cbb60e01b8152336004820152602481018390526000916001600160a01b03169063a9059cbb906044016020604051808303816000875af1158015610671573d6000803e3d6000fd5b505050506040513d601f19601f8201168201806040525081019061069591906107f5565b9050806106d65760405162461bcd60e51b815260206004820152600f60248201526e151c985b9cd9995c8819985a5b1959608a1b60448201526064016102da565b5050506106e36001600055565b565b60006003546000036106f8575060045490565b60006005544261070891906107cb565b9050600061071e82670de0b6b3a76400006107de565b90506003548161072e919061082a565b60045461073b9190610817565b9250505090565b60026000540361076557604051633ee5aeb560e01b815260040160405180910390fd5b6002600055565b60006020828403121561077e57600080fd5b81356001600160a01b038116811461079557600080fd5b9392505050565b6000602082840312156107ae57600080fd5b5035919050565b634e487b7160e01b600052601160045260246000fd5b8181038181111561023f5761023f6107b5565b808202811582820484141761023f5761023f6107b5565b60006020828403121561080757600080fd5b8151801515811461079557600080fd5b8082018082111561023f5761023f6107b5565b60008261084757634e487b7160e01b600052601260045260246000fd5b50049056fea26469706673582212204510537a625a91e1077d52e0e6214f8d95e2b731726e20bda67382c3182ef00564736f6c634300081a0033",
        "linkReferences": {}
    },
    "methodIdentifiers": {
        "Reward_Rate()": "69ef6ee7",
        "claimReward()": "b88a802f",
        "lastUpdatedTime()": "bf856895",
        "rewardPerToken()": "cd3daf9d",
        "rewardPerTokenStored()": "df136d65",
        "rewardToken()": "f7c618c1",
        "rewards(address)": "0700037d",
        "stake(uint256)": "a694fc3a",
        "stakedBalance(address)": "60217267",
        "stakingToken()": "72f702f3",
        "tokenEarned(address)": "5780fe98",
        "userRewardPerTokenPaid(address)": "8b876347",
        "withdrawnToken(uint256)": "746b1161"
    },
    "id": 35
}